{
  "_format": "hh-sol-artifact-1",
  "contractName": "MyNFT",
  "sourceName": "contracts/MyNFT.sol",
  "abi": [
    {
      "inputs": [],
      "stateMutability": "nonpayable",
      "type": "constructor"
    },
    {
      "anonymous": false,
      "inputs": [
        {
          "indexed": true,
          "internalType": "address",
          "name": "owner",
          "type": "address"
        },
        {
          "indexed": true,
          "internalType": "address",
          "name": "approved",
          "type": "address"
        },
        {
          "indexed": true,
          "internalType": "uint256",
          "name": "tokenId",
          "type": "uint256"
        }
      ],
      "name": "Approval",
      "type": "event"
    },
    {
      "anonymous": false,
      "inputs": [
        {
          "indexed": true,
          "internalType": "address",
          "name": "owner",
          "type": "address"
        },
        {
          "indexed": true,
          "internalType": "address",
          "name": "operator",
          "type": "address"
        },
        {
          "indexed": false,
          "internalType": "bool",
          "name": "approved",
          "type": "bool"
        }
      ],
      "name": "ApprovalForAll",
      "type": "event"
    },
    {
      "anonymous": false,
      "inputs": [
        {
          "indexed": true,
          "internalType": "address",
          "name": "previousOwner",
          "type": "address"
        },
        {
          "indexed": true,
          "internalType": "address",
          "name": "newOwner",
          "type": "address"
        }
      ],
      "name": "OwnershipTransferred",
      "type": "event"
    },
    {
      "anonymous": false,
      "inputs": [
        {
          "indexed": true,
          "internalType": "address",
          "name": "from",
          "type": "address"
        },
        {
          "indexed": true,
          "internalType": "address",
          "name": "to",
          "type": "address"
        },
        {
          "indexed": true,
          "internalType": "uint256",
          "name": "tokenId",
          "type": "uint256"
        }
      ],
      "name": "Transfer",
      "type": "event"
    },
    {
      "inputs": [
        {
          "internalType": "address",
          "name": "to",
          "type": "address"
        },
        {
          "internalType": "uint256",
          "name": "tokenId",
          "type": "uint256"
        }
      ],
      "name": "approve",
      "outputs": [],
      "stateMutability": "nonpayable",
      "type": "function"
    },
    {
      "inputs": [
        {
          "internalType": "address",
          "name": "owner",
          "type": "address"
        }
      ],
      "name": "balanceOf",
      "outputs": [
        {
          "internalType": "uint256",
          "name": "",
          "type": "uint256"
        }
      ],
      "stateMutability": "view",
      "type": "function"
    },
    {
      "inputs": [],
      "name": "baseURI",
      "outputs": [
        {
          "internalType": "string",
          "name": "",
          "type": "string"
        }
      ],
      "stateMutability": "view",
      "type": "function"
    },
    {
      "inputs": [
        {
          "internalType": "uint256",
          "name": "tokenId",
          "type": "uint256"
        }
      ],
      "name": "colorOf",
      "outputs": [
        {
          "internalType": "string",
          "name": "",
          "type": "string"
        }
      ],
      "stateMutability": "view",
      "type": "function"
    },
    {
      "inputs": [
        {
          "internalType": "uint256",
          "name": "tokenId",
          "type": "uint256"
        }
      ],
      "name": "getApproved",
      "outputs": [
        {
          "internalType": "address",
          "name": "",
          "type": "address"
        }
      ],
      "stateMutability": "view",
      "type": "function"
    },
    {
      "inputs": [
        {
          "internalType": "address",
          "name": "owner",
          "type": "address"
        },
        {
          "internalType": "address",
          "name": "operator",
          "type": "address"
        }
      ],
      "name": "isApprovedForAll",
      "outputs": [
        {
          "internalType": "bool",
          "name": "",
          "type": "bool"
        }
      ],
      "stateMutability": "view",
      "type": "function"
    },
    {
      "inputs": [
        {
          "internalType": "address",
          "name": "recipient",
          "type": "address"
        },
        {
          "internalType": "string",
          "name": "tokenURI",
          "type": "string"
        },
        {
          "internalType": "string",
          "name": "color",
          "type": "string"
        }
      ],
      "name": "mintNFT",
      "outputs": [
        {
          "internalType": "uint256",
          "name": "",
          "type": "uint256"
        }
      ],
      "stateMutability": "nonpayable",
      "type": "function"
    },
    {
      "inputs": [],
      "name": "name",
      "outputs": [
        {
          "internalType": "string",
          "name": "",
          "type": "string"
        }
      ],
      "stateMutability": "view",
      "type": "function"
    },
    {
      "inputs": [],
      "name": "owner",
      "outputs": [
        {
          "internalType": "address",
          "name": "",
          "type": "address"
        }
      ],
      "stateMutability": "view",
      "type": "function"
    },
    {
      "inputs": [
        {
          "internalType": "uint256",
          "name": "tokenId",
          "type": "uint256"
        }
      ],
      "name": "ownerOf",
      "outputs": [
        {
          "internalType": "address",
          "name": "",
          "type": "address"
        }
      ],
      "stateMutability": "view",
      "type": "function"
    },
    {
      "inputs": [],
      "name": "renounceOwnership",
      "outputs": [],
      "stateMutability": "nonpayable",
      "type": "function"
    },
    {
      "inputs": [
        {
          "internalType": "address",
          "name": "from",
          "type": "address"
        },
        {
          "internalType": "address",
          "name": "to",
          "type": "address"
        },
        {
          "internalType": "uint256",
          "name": "tokenId",
          "type": "uint256"
        }
      ],
      "name": "safeTransferFrom",
      "outputs": [],
      "stateMutability": "nonpayable",
      "type": "function"
    },
    {
      "inputs": [
        {
          "internalType": "address",
          "name": "from",
          "type": "address"
        },
        {
          "internalType": "address",
          "name": "to",
          "type": "address"
        },
        {
          "internalType": "uint256",
          "name": "tokenId",
          "type": "uint256"
        },
        {
          "internalType": "bytes",
          "name": "_data",
          "type": "bytes"
        }
      ],
      "name": "safeTransferFrom",
      "outputs": [],
      "stateMutability": "nonpayable",
      "type": "function"
    },
    {
      "inputs": [
        {
          "internalType": "address",
          "name": "operator",
          "type": "address"
        },
        {
          "internalType": "bool",
          "name": "approved",
          "type": "bool"
        }
      ],
      "name": "setApprovalForAll",
      "outputs": [],
      "stateMutability": "nonpayable",
      "type": "function"
    },
    {
      "inputs": [
        {
          "internalType": "bytes4",
          "name": "interfaceId",
          "type": "bytes4"
        }
      ],
      "name": "supportsInterface",
      "outputs": [
        {
          "internalType": "bool",
          "name": "",
          "type": "bool"
        }
      ],
      "stateMutability": "view",
      "type": "function"
    },
    {
      "inputs": [],
      "name": "symbol",
      "outputs": [
        {
          "internalType": "string",
          "name": "",
          "type": "string"
        }
      ],
      "stateMutability": "view",
      "type": "function"
    },
    {
      "inputs": [
        {
          "internalType": "uint256",
          "name": "index",
          "type": "uint256"
        }
      ],
      "name": "tokenByIndex",
      "outputs": [
        {
          "internalType": "uint256",
          "name": "",
          "type": "uint256"
        }
      ],
      "stateMutability": "view",
      "type": "function"
    },
    {
      "inputs": [
        {
          "internalType": "address",
          "name": "owner",
          "type": "address"
        },
        {
          "internalType": "uint256",
          "name": "index",
          "type": "uint256"
        }
      ],
      "name": "tokenOfOwnerByIndex",
      "outputs": [
        {
          "internalType": "uint256",
          "name": "",
          "type": "uint256"
        }
      ],
      "stateMutability": "view",
      "type": "function"
    },
    {
      "inputs": [
        {
          "internalType": "uint256",
          "name": "tokenId",
          "type": "uint256"
        }
      ],
      "name": "tokenURI",
      "outputs": [
        {
          "internalType": "string",
          "name": "",
          "type": "string"
        }
      ],
      "stateMutability": "view",
      "type": "function"
    },
    {
      "inputs": [],
      "name": "totalSupply",
      "outputs": [
        {
          "internalType": "uint256",
          "name": "",
          "type": "uint256"
        }
      ],
      "stateMutability": "view",
      "type": "function"
    },
    {
      "inputs": [
        {
          "internalType": "address",
          "name": "from",
          "type": "address"
        },
        {
          "internalType": "address",
          "name": "to",
          "type": "address"
        },
        {
          "internalType": "uint256",
          "name": "tokenId",
          "type": "uint256"
        }
      ],
      "name": "transferFrom",
      "outputs": [],
      "stateMutability": "nonpayable",
      "type": "function"
    },
    {
      "inputs": [
        {
          "internalType": "address",
          "name": "newOwner",
          "type": "address"
        }
      ],
      "name": "transferOwnership",
      "outputs": [],
      "stateMutability": "nonpayable",
      "type": "function"
    }
  ],
  "bytecode": "0x60806040523480156200001157600080fd5b506040518060400160405280600581526020017f4d794e46540000000000000000000000000000000000000000000000000000008152506040518060400160405280600381526020017f4e46540000000000000000000000000000000000000000000000000000000000815250620000966301ffc9a760e01b620001c960201b60201c565b8160069080519060200190620000ae929190620002da565b508060079080519060200190620000c7929190620002da565b50620000e06380ac58cd60e01b620001c960201b60201c565b620000f8635b5e139f60e01b620001c960201b60201c565b6200011063780e9d6360e01b620001c960201b60201c565b5050600062000124620002d260201b60201c565b905080600a60006101000a81548173ffffffffffffffffffffffffffffffffffffffff021916908373ffffffffffffffffffffffffffffffffffffffff1602179055508073ffffffffffffffffffffffffffffffffffffffff16600073ffffffffffffffffffffffffffffffffffffffff167f8be0079c531659141344cd1fd0a4f28419497f9722a3daafe3b4186f6b6457e060405160405180910390a35062000380565b63ffffffff60e01b817bffffffffffffffffffffffffffffffffffffffffffffffffffffffff1916141562000266576040517f08c379a000000000000000000000000000000000000000000000000000000000815260040180806020018281038252601c8152602001807f4552433136353a20696e76616c696420696e746572666163652069640000000081525060200191505060405180910390fd5b6001600080837bffffffffffffffffffffffffffffffffffffffffffffffffffffffff19167bffffffffffffffffffffffffffffffffffffffffffffffffffffffff1916815260200190815260200160002060006101000a81548160ff02191690831515021790555050565b600033905090565b828054600181600116156101000203166002900490600052602060002090601f016020900481019282601f106200031d57805160ff19168380011785556200034e565b828001600101855582156200034e579182015b828111156200034d57825182559160200191906001019062000330565b5b5090506200035d919062000361565b5090565b5b808211156200037c57600081600090555060010162000362565b5090565b6133ff80620003906000396000f3fe608060405234801561001057600080fd5b50600436106101425760003560e01c80636c0360eb116100b8578063a22cb4651161007c578063a22cb4651461070c578063a3ee38ae1461075c578063b88d4fde146108e2578063c87b56dd146109e7578063e985e9c514610a8e578063f2fde38b14610b0857610142565b80636c0360eb1461057057806370a08231146105f3578063715018a61461064b5780638da5cb5b1461065557806395d89b411461068957610142565b8063239947291161010a57806323994729146102f157806323b872dd146103985780632f745c591461040657806342842e0e146104685780634f6ccce7146104d65780636352211e1461051857610142565b806301ffc9a71461014757806306fdde03146101aa578063081812fc1461022d578063095ea7b31461028557806318160ddd146102d3575b600080fd5b6101926004803603602081101561015d57600080fd5b8101908080357bffffffffffffffffffffffffffffffffffffffffffffffffffffffff19169060200190929190505050610b4c565b60405180821515815260200191505060405180910390f35b6101b2610bb3565b6040518080602001828103825283818151815260200191508051906020019080838360005b838110156101f25780820151818401526020810190506101d7565b50505050905090810190601f16801561021f5780820380516001836020036101000a031916815260200191505b509250505060405180910390f35b6102596004803603602081101561024357600080fd5b8101908080359060200190929190505050610c55565b604051808273ffffffffffffffffffffffffffffffffffffffff16815260200191505060405180910390f35b6102d16004803603604081101561029b57600080fd5b81019080803573ffffffffffffffffffffffffffffffffffffffff16906020019092919080359060200190929190505050610cf0565b005b6102db610e34565b6040518082815260200191505060405180910390f35b61031d6004803603602081101561030757600080fd5b8101908080359060200190929190505050610e45565b6040518080602001828103825283818151815260200191508051906020019080838360005b8381101561035d578082015181840152602081019050610342565b50505050905090810190601f16801561038a5780820380516001836020036101000a031916815260200191505b509250505060405180910390f35b610404600480360360608110156103ae57600080fd5b81019080803573ffffffffffffffffffffffffffffffffffffffff169060200190929190803573ffffffffffffffffffffffffffffffffffffffff16906020019092919080359060200190929190505050610efa565b005b6104526004803603604081101561041c57600080fd5b81019080803573ffffffffffffffffffffffffffffffffffffffff16906020019092919080359060200190929190505050610f70565b6040518082815260200191505060405180910390f35b6104d46004803603606081101561047e57600080fd5b81019080803573ffffffffffffffffffffffffffffffffffffffff169060200190929190803573ffffffffffffffffffffffffffffffffffffffff16906020019092919080359060200190929190505050610fcb565b005b610502600480360360208110156104ec57600080fd5b8101908080359060200190929190505050610feb565b6040518082815260200191505060405180910390f35b6105446004803603602081101561052e57600080fd5b810190808035906020019092919050505061100e565b604051808273ffffffffffffffffffffffffffffffffffffffff16815260200191505060405180910390f35b610578611045565b6040518080602001828103825283818151815260200191508051906020019080838360005b838110156105b857808201518184015260208101905061059d565b50505050905090810190601f1680156105e55780820380516001836020036101000a031916815260200191505b509250505060405180910390f35b6106356004803603602081101561060957600080fd5b81019080803573ffffffffffffffffffffffffffffffffffffffff1690602001909291905050506110e7565b6040518082815260200191505060405180910390f35b6106536111bc565b005b61065d611347565b604051808273ffffffffffffffffffffffffffffffffffffffff16815260200191505060405180910390f35b610691611371565b6040518080602001828103825283818151815260200191508051906020019080838360005b838110156106d15780820151818401526020810190506106b6565b50505050905090810190601f1680156106fe5780820380516001836020036101000a031916815260200191505b509250505060405180910390f35b61075a6004803603604081101561072257600080fd5b81019080803573ffffffffffffffffffffffffffffffffffffffff169060200190929190803515159060200190929190505050611413565b005b6108cc6004803603606081101561077257600080fd5b81019080803573ffffffffffffffffffffffffffffffffffffffff169060200190929190803590602001906401000000008111156107af57600080fd5b8201836020820111156107c157600080fd5b803590602001918460018302840111640100000000831117156107e357600080fd5b91908080601f016020809104026020016040519081016040528093929190818152602001838380828437600081840152601f19601f8201169050808301925050505050505091929192908035906020019064010000000081111561084657600080fd5b82018360208201111561085857600080fd5b8035906020019184600183028401116401000000008311171561087a57600080fd5b91908080601f016020809104026020016040519081016040528093929190818152602001838380828437600081840152601f19601f8201169050808301925050505050505091929192905050506115c9565b6040518082815260200191505060405180910390f35b6109e5600480360360808110156108f857600080fd5b81019080803573ffffffffffffffffffffffffffffffffffffffff169060200190929190803573ffffffffffffffffffffffffffffffffffffffff169060200190929190803590602001909291908035906020019064010000000081111561095f57600080fd5b82018360208201111561097157600080fd5b8035906020019184600183028401116401000000008311171561099357600080fd5b91908080601f016020809104026020016040519081016040528093929190818152602001838380828437600081840152601f19601f8201169050808301925050505050505091929192905050506117f7565b005b610a13600480360360208110156109fd57600080fd5b810190808035906020019092919050505061186f565b6040518080602001828103825283818151815260200191508051906020019080838360005b83811015610a53578082015181840152602081019050610a38565b50505050905090810190601f168015610a805780820380516001836020036101000a031916815260200191505b509250505060405180910390f35b610af060048036036040811015610aa457600080fd5b81019080803573ffffffffffffffffffffffffffffffffffffffff169060200190929190803573ffffffffffffffffffffffffffffffffffffffff169060200190929190505050611b58565b60405180821515815260200191505060405180910390f35b610b4a60048036036020811015610b1e57600080fd5b81019080803573ffffffffffffffffffffffffffffffffffffffff169060200190929190505050611bec565b005b6000806000837bffffffffffffffffffffffffffffffffffffffffffffffffffffffff19167bffffffffffffffffffffffffffffffffffffffffffffffffffffffff1916815260200190815260200160002060009054906101000a900460ff169050919050565b606060068054600181600116156101000203166002900480601f016020809104026020016040519081016040528092919081815260200182805460018160011615610100020316600290048015610c4b5780601f10610c2057610100808354040283529160200191610c4b565b820191906000526020600020905b815481529060010190602001808311610c2e57829003601f168201915b5050505050905090565b6000610c6082611dfc565b610cb5576040517f08c379a000000000000000000000000000000000000000000000000000000000815260040180806020018281038252602c8152602001806132c8602c913960400191505060405180910390fd5b6004600083815260200190815260200160002060009054906101000a900473ffffffffffffffffffffffffffffffffffffffff169050919050565b6000610cfb8261100e565b90508073ffffffffffffffffffffffffffffffffffffffff168373ffffffffffffffffffffffffffffffffffffffff161415610d82576040517f08c379a00000000000000000000000000000000000000000000000000000000081526004018080602001828103825260218152602001806133786021913960400191505060405180910390fd5b8073ffffffffffffffffffffffffffffffffffffffff16610da1611e19565b73ffffffffffffffffffffffffffffffffffffffff161480610dd05750610dcf81610dca611e19565b611b58565b5b610e25576040517f08c379a000000000000000000000000000000000000000000000000000000000815260040180806020018281038252603881526020018061321b6038913960400191505060405180910390fd5b610e2f8383611e21565b505050565b6000610e406002611eda565b905090565b6060600c60008381526020019081526020016000208054600181600116156101000203166002900480601f016020809104026020016040519081016040528092919081815260200182805460018160011615610100020316600290048015610eee5780601f10610ec357610100808354040283529160200191610eee565b820191906000526020600020905b815481529060010190602001808311610ed157829003601f168201915b50505050509050919050565b610f0b610f05611e19565b82611eef565b610f60576040517f08c379a00000000000000000000000000000000000000000000000000000000081526004018080602001828103825260318152602001806133996031913960400191505060405180910390fd5b610f6b838383611fe3565b505050565b6000610fc382600160008673ffffffffffffffffffffffffffffffffffffffff1673ffffffffffffffffffffffffffffffffffffffff16815260200190815260200160002061222690919063ffffffff16565b905092915050565b610fe6838383604051806020016040528060008152506117f7565b505050565b60008061100283600261224090919063ffffffff16565b50905080915050919050565b600061103e8260405180606001604052806029815260200161327d60299139600261226c9092919063ffffffff16565b9050919050565b606060098054600181600116156101000203166002900480601f0160208091040260200160405190810160405280929190818152602001828054600181600116156101000203166002900480156110dd5780601f106110b2576101008083540402835291602001916110dd565b820191906000526020600020905b8154815290600101906020018083116110c057829003601f168201915b5050505050905090565b60008073ffffffffffffffffffffffffffffffffffffffff168273ffffffffffffffffffffffffffffffffffffffff16141561116e576040517f08c379a000000000000000000000000000000000000000000000000000000000815260040180806020018281038252602a815260200180613253602a913960400191505060405180910390fd5b6111b5600160008473ffffffffffffffffffffffffffffffffffffffff1673ffffffffffffffffffffffffffffffffffffffff16815260200190815260200160002061228b565b9050919050565b6111c4611e19565b73ffffffffffffffffffffffffffffffffffffffff16600a60009054906101000a900473ffffffffffffffffffffffffffffffffffffffff1673ffffffffffffffffffffffffffffffffffffffff1614611286576040517f08c379a00000000000000000000000000000000000000000000000000000000081526004018080602001828103825260208152602001807f4f776e61626c653a2063616c6c6572206973206e6f7420746865206f776e657281525060200191505060405180910390fd5b600073ffffffffffffffffffffffffffffffffffffffff16600a60009054906101000a900473ffffffffffffffffffffffffffffffffffffffff1673ffffffffffffffffffffffffffffffffffffffff167f8be0079c531659141344cd1fd0a4f28419497f9722a3daafe3b4186f6b6457e060405160405180910390a36000600a60006101000a81548173ffffffffffffffffffffffffffffffffffffffff021916908373ffffffffffffffffffffffffffffffffffffffff160217905550565b6000600a60009054906101000a900473ffffffffffffffffffffffffffffffffffffffff16905090565b606060078054600181600116156101000203166002900480601f0160208091040260200160405190810160405280929190818152602001828054600181600116156101000203166002900480156114095780601f106113de57610100808354040283529160200191611409565b820191906000526020600020905b8154815290600101906020018083116113ec57829003601f168201915b5050505050905090565b61141b611e19565b73ffffffffffffffffffffffffffffffffffffffff168273ffffffffffffffffffffffffffffffffffffffff1614156114bc576040517f08c379a00000000000000000000000000000000000000000000000000000000081526004018080602001828103825260198152602001807f4552433732313a20617070726f766520746f2063616c6c65720000000000000081525060200191505060405180910390fd5b80600560006114c9611e19565b73ffffffffffffffffffffffffffffffffffffffff1673ffffffffffffffffffffffffffffffffffffffff16815260200190815260200160002060008473ffffffffffffffffffffffffffffffffffffffff1673ffffffffffffffffffffffffffffffffffffffff16815260200190815260200160002060006101000a81548160ff0219169083151502179055508173ffffffffffffffffffffffffffffffffffffffff16611576611e19565b73ffffffffffffffffffffffffffffffffffffffff167f17307eab39ab6107e8899845ad3d59bd9653f200f220920489ca2b5937696c318360405180821515815260200191505060405180910390a35050565b60006115d3611e19565b73ffffffffffffffffffffffffffffffffffffffff16600a60009054906101000a900473ffffffffffffffffffffffffffffffffffffffff1673ffffffffffffffffffffffffffffffffffffffff1614611695576040517f08c379a00000000000000000000000000000000000000000000000000000000081526004018080602001828103825260208152602001807f4f776e61626c653a2063616c6c6572206973206e6f7420746865206f776e657281525060200191505060405180910390fd5b600d826040518082805190602001908083835b602083106116cb57805182526020820191506020810190506020830392506116a8565b6001836020036101000a038019825116818451168082178552505050505050905001915050908152602001604051809103902060009054906101000a900460ff161561171657600080fd5b611720600b6122a0565b600061172c600b6122b6565b905061173885826122c4565b61174281856124b8565b82600c600083815260200190815260200160002090805190602001906117699291906130b3565b506001600d846040518082805190602001908083835b602083106117a2578051825260208201915060208101905060208303925061177f565b6001836020036101000a038019825116818451168082178552505050505050905001915050908152602001604051809103902060006101000a81548160ff021916908315150217905550809150509392505050565b611808611802611e19565b83611eef565b61185d576040517f08c379a00000000000000000000000000000000000000000000000000000000081526004018080602001828103825260318152602001806133996031913960400191505060405180910390fd5b61186984848484612542565b50505050565b606061187a82611dfc565b6118cf576040517f08c379a000000000000000000000000000000000000000000000000000000000815260040180806020018281038252602f815260200180613349602f913960400191505060405180910390fd5b6060600860008481526020019081526020016000208054600181600116156101000203166002900480601f0160208091040260200160405190810160405280929190818152602001828054600181600116156101000203166002900480156119785780601f1061194d57610100808354040283529160200191611978565b820191906000526020600020905b81548152906001019060200180831161195b57829003601f168201915b505050505090506000600980546001816001161561010002031660029004905014156119a75780915050611b53565b600081511115611a80576009816040516020018083805460018160011615610100020316600290048015611a125780601f106119f0576101008083540402835291820191611a12565b820191906000526020600020905b8154815290600101906020018083116119fe575b505082805190602001908083835b60208310611a435780518252602082019150602081019050602083039250611a20565b6001836020036101000a03801982511681845116808217855250505050505090500192505050604051602081830303815290604052915050611b53565b6009611a8b846125b4565b6040516020018083805460018160011615610100020316600290048015611ae95780601f10611ac7576101008083540402835291820191611ae9565b820191906000526020600020905b815481529060010190602001808311611ad5575b505082805190602001908083835b60208310611b1a5780518252602082019150602081019050602083039250611af7565b6001836020036101000a038019825116818451168082178552505050505050905001925050506040516020818303038152906040529150505b919050565b6000600560008473ffffffffffffffffffffffffffffffffffffffff1673ffffffffffffffffffffffffffffffffffffffff16815260200190815260200160002060008373ffffffffffffffffffffffffffffffffffffffff1673ffffffffffffffffffffffffffffffffffffffff16815260200190815260200160002060009054906101000a900460ff16905092915050565b611bf4611e19565b73ffffffffffffffffffffffffffffffffffffffff16600a60009054906101000a900473ffffffffffffffffffffffffffffffffffffffff1673ffffffffffffffffffffffffffffffffffffffff1614611cb6576040517f08c379a00000000000000000000000000000000000000000000000000000000081526004018080602001828103825260208152602001807f4f776e61626c653a2063616c6c6572206973206e6f7420746865206f776e657281525060200191505060405180910390fd5b600073ffffffffffffffffffffffffffffffffffffffff168173ffffffffffffffffffffffffffffffffffffffff161415611d3c576040517f08c379a00000000000000000000000000000000000000000000000000000000081526004018080602001828103825260268152602001806131a56026913960400191505060405180910390fd5b8073ffffffffffffffffffffffffffffffffffffffff16600a60009054906101000a900473ffffffffffffffffffffffffffffffffffffffff1673ffffffffffffffffffffffffffffffffffffffff167f8be0079c531659141344cd1fd0a4f28419497f9722a3daafe3b4186f6b6457e060405160405180910390a380600a60006101000a81548173ffffffffffffffffffffffffffffffffffffffff021916908373ffffffffffffffffffffffffffffffffffffffff16021790555050565b6000611e128260026126fb90919063ffffffff16565b9050919050565b600033905090565b816004600083815260200190815260200160002060006101000a81548173ffffffffffffffffffffffffffffffffffffffff021916908373ffffffffffffffffffffffffffffffffffffffff160217905550808273ffffffffffffffffffffffffffffffffffffffff16611e948361100e565b73ffffffffffffffffffffffffffffffffffffffff167f8c5be1e5ebec7d5bd14f71427d1e84f3dd0314c0f7b2291e5b200ac8c7c3b92560405160405180910390a45050565b6000611ee882600001612715565b9050919050565b6000611efa82611dfc565b611f4f576040517f08c379a000000000000000000000000000000000000000000000000000000000815260040180806020018281038252602c8152602001806131ef602c913960400191505060405180910390fd5b6000611f5a8361100e565b90508073ffffffffffffffffffffffffffffffffffffffff168473ffffffffffffffffffffffffffffffffffffffff161480611fc957508373ffffffffffffffffffffffffffffffffffffffff16611fb184610c55565b73ffffffffffffffffffffffffffffffffffffffff16145b80611fda5750611fd98185611b58565b5b91505092915050565b8273ffffffffffffffffffffffffffffffffffffffff166120038261100e565b73ffffffffffffffffffffffffffffffffffffffff161461206f576040517f08c379a00000000000000000000000000000000000000000000000000000000081526004018080602001828103825260298152602001806133206029913960400191505060405180910390fd5b600073ffffffffffffffffffffffffffffffffffffffff168273ffffffffffffffffffffffffffffffffffffffff1614156120f5576040517f08c379a00000000000000000000000000000000000000000000000000000000081526004018080602001828103825260248152602001806131cb6024913960400191505060405180910390fd5b612100838383612726565b61210b600082611e21565b61215c81600160008673ffffffffffffffffffffffffffffffffffffffff1673ffffffffffffffffffffffffffffffffffffffff16815260200190815260200160002061272b90919063ffffffff16565b506121ae81600160008573ffffffffffffffffffffffffffffffffffffffff1673ffffffffffffffffffffffffffffffffffffffff16815260200190815260200160002061274590919063ffffffff16565b506121c58183600261275f9092919063ffffffff16565b50808273ffffffffffffffffffffffffffffffffffffffff168473ffffffffffffffffffffffffffffffffffffffff167fddf252ad1be2c89b69c2b068fc378daa952ba7f163c4a11628f55a4df523b3ef60405160405180910390a4505050565b60006122358360000183612794565b60001c905092915050565b6000806000806122538660000186612817565b915091508160001c8160001c9350935050509250929050565b600061227f846000018460001b846128b0565b60001c90509392505050565b6000612299826000016129a6565b9050919050565b6001816000016000828254019250508190555050565b600081600001549050919050565b600073ffffffffffffffffffffffffffffffffffffffff168273ffffffffffffffffffffffffffffffffffffffff161415612367576040517f08c379a00000000000000000000000000000000000000000000000000000000081526004018080602001828103825260208152602001807f4552433732313a206d696e7420746f20746865207a65726f206164647265737381525060200191505060405180910390fd5b61237081611dfc565b156123e3576040517f08c379a000000000000000000000000000000000000000000000000000000000815260040180806020018281038252601c8152602001807f4552433732313a20746f6b656e20616c7265616479206d696e7465640000000081525060200191505060405180910390fd5b6123ef60008383612726565b61244081600160008573ffffffffffffffffffffffffffffffffffffffff1673ffffffffffffffffffffffffffffffffffffffff16815260200190815260200160002061274590919063ffffffff16565b506124578183600261275f9092919063ffffffff16565b50808273ffffffffffffffffffffffffffffffffffffffff16600073ffffffffffffffffffffffffffffffffffffffff167fddf252ad1be2c89b69c2b068fc378daa952ba7f163c4a11628f55a4df523b3ef60405160405180910390a45050565b6124c182611dfc565b612516576040517f08c379a000000000000000000000000000000000000000000000000000000000815260040180806020018281038252602c8152602001806132f4602c913960400191505060405180910390fd5b8060086000848152602001908152602001600020908051906020019061253d9291906130b3565b505050565b61254d848484611fe3565b612559848484846129b7565b6125ae576040517f08c379a00000000000000000000000000000000000000000000000000000000081526004018080602001828103825260328152602001806131736032913960400191505060405180910390fd5b50505050565b606060008214156125fc576040518060400160405280600181526020017f300000000000000000000000000000000000000000000000000000000000000081525090506126f6565b600082905060005b60008214612626578080600101915050600a828161261e57fe5b049150612604565b60608167ffffffffffffffff8111801561263f57600080fd5b506040519080825280601f01601f1916602001820160405280156126725781602001600182028036833780820191505090505b50905060006001830390508593505b600084146126ee57600a848161269357fe5b0660300160f81b828280600190039350815181106126ad57fe5b60200101907effffffffffffffffffffffffffffffffffffffffffffffffffffffffffffff1916908160001a905350600a84816126e657fe5b049350612681565b819450505050505b919050565b600061270d836000018360001b612bd0565b905092915050565b600081600001805490509050919050565b505050565b600061273d836000018360001b612bf3565b905092915050565b6000612757836000018360001b612cdb565b905092915050565b600061278b846000018460001b8473ffffffffffffffffffffffffffffffffffffffff1660001b612d4b565b90509392505050565b6000818360000180549050116127f5576040517f08c379a00000000000000000000000000000000000000000000000000000000081526004018080602001828103825260228152602001806131516022913960400191505060405180910390fd5b82600001828154811061280457fe5b9060005260206000200154905092915050565b60008082846000018054905011612879576040517f08c379a00000000000000000000000000000000000000000000000000000000081526004018080602001828103825260228152602001806132a66022913960400191505060405180910390fd5b600084600001848154811061288a57fe5b906000526020600020906002020190508060000154816001015492509250509250929050565b60008084600101600085815260200190815260200160002054905060008114158390612977576040517f08c379a00000000000000000000000000000000000000000000000000000000081526004018080602001828103825283818151815260200191508051906020019080838360005b8381101561293c578082015181840152602081019050612921565b50505050905090810190601f1680156129695780820380516001836020036101000a031916815260200191505b509250505060405180910390fd5b5084600001600182038154811061298a57fe5b9060005260206000209060020201600101549150509392505050565b600081600001805490509050919050565b60006129d88473ffffffffffffffffffffffffffffffffffffffff16612e27565b6129e55760019050612bc8565b6060612b4f63150b7a0260e01b6129fa611e19565b888787604051602401808573ffffffffffffffffffffffffffffffffffffffff1681526020018473ffffffffffffffffffffffffffffffffffffffff16815260200183815260200180602001828103825283818151815260200191508051906020019080838360005b83811015612a7e578082015181840152602081019050612a63565b50505050905090810190601f168015612aab5780820380516001836020036101000a031916815260200191505b5095505050505050604051602081830303815290604052907bffffffffffffffffffffffffffffffffffffffffffffffffffffffff19166020820180517bffffffffffffffffffffffffffffffffffffffffffffffffffffffff8381831617835250505050604051806060016040528060328152602001613173603291398773ffffffffffffffffffffffffffffffffffffffff16612e729092919063ffffffff16565b90506000818060200190516020811015612b6857600080fd5b8101908080519060200190929190505050905063150b7a0260e01b7bffffffffffffffffffffffffffffffffffffffffffffffffffffffff1916817bffffffffffffffffffffffffffffffffffffffffffffffffffffffff191614925050505b949350505050565b600080836001016000848152602001908152602001600020541415905092915050565b60008083600101600084815260200190815260200160002054905060008114612ccf5760006001820390506000600186600001805490500390506000866000018281548110612c3e57fe5b9060005260206000200154905080876000018481548110612c5b57fe5b9060005260206000200181905550600183018760010160008381526020019081526020016000208190555086600001805480612c9357fe5b60019003818190600052602060002001600090559055866001016000878152602001908152602001600020600090556001945050505050612cd5565b60009150505b92915050565b6000612ce78383612e8a565b612d40578260000182908060018154018082558091505060019003906000526020600020016000909190919091505582600001805490508360010160008481526020019081526020016000208190555060019050612d45565b600090505b92915050565b6000808460010160008581526020019081526020016000205490506000811415612df257846000016040518060400160405280868152602001858152509080600181540180825580915050600190039060005260206000209060020201600090919091909150600082015181600001556020820151816001015550508460000180549050856001016000868152602001908152602001600020819055506001915050612e20565b82856000016001830381548110612e0557fe5b90600052602060002090600202016001018190555060009150505b9392505050565b60008060007fc5d2460186f7233c927e7db2dcc703c0e500b653ca82273b7bfad8045d85a47060001b9050833f9150808214158015612e6957506000801b8214155b92505050919050565b6060612e818484600085612ead565b90509392505050565b600080836001016000848152602001908152602001600020541415905092915050565b6060612eb885612e27565b612f2a576040517f08c379a000000000000000000000000000000000000000000000000000000000815260040180806020018281038252601d8152602001807f416464726573733a2063616c6c20746f206e6f6e2d636f6e747261637400000081525060200191505060405180910390fd5b600060608673ffffffffffffffffffffffffffffffffffffffff1685876040518082805190602001908083835b60208310612f7a5780518252602082019150602081019050602083039250612f57565b6001836020036101000a03801982511681845116808217855250505050505090500191505060006040518083038185875af1925050503d8060008114612fdc576040519150601f19603f3d011682016040523d82523d6000602084013e612fe1565b606091505b50915091508115612ff65780925050506130ab565b6000815111156130095780518082602001fd5b836040517f08c379a00000000000000000000000000000000000000000000000000000000081526004018080602001828103825283818151815260200191508051906020019080838360005b83811015613070578082015181840152602081019050613055565b50505050905090810190601f16801561309d5780820380516001836020036101000a031916815260200191505b509250505060405180910390fd5b949350505050565b828054600181600116156101000203166002900490600052602060002090601f016020900481019282601f106130f457805160ff1916838001178555613122565b82800160010185558215613122579182015b82811115613121578251825591602001919060010190613106565b5b50905061312f9190613133565b5090565b5b8082111561314c576000816000905550600101613134565b509056fe456e756d657261626c655365743a20696e646578206f7574206f6620626f756e64734552433732313a207472616e7366657220746f206e6f6e20455243373231526563656976657220696d706c656d656e7465724f776e61626c653a206e6577206f776e657220697320746865207a65726f20616464726573734552433732313a207472616e7366657220746f20746865207a65726f20616464726573734552433732313a206f70657261746f7220717565727920666f72206e6f6e6578697374656e7420746f6b656e4552433732313a20617070726f76652063616c6c6572206973206e6f74206f776e6572206e6f7220617070726f76656420666f7220616c6c4552433732313a2062616c616e636520717565727920666f7220746865207a65726f20616464726573734552433732313a206f776e657220717565727920666f72206e6f6e6578697374656e7420746f6b656e456e756d657261626c654d61703a20696e646578206f7574206f6620626f756e64734552433732313a20617070726f76656420717565727920666f72206e6f6e6578697374656e7420746f6b656e4552433732314d657461646174613a2055524920736574206f66206e6f6e6578697374656e7420746f6b656e4552433732313a207472616e73666572206f6620746f6b656e2074686174206973206e6f74206f776e4552433732314d657461646174613a2055524920717565727920666f72206e6f6e6578697374656e7420746f6b656e4552433732313a20617070726f76616c20746f2063757272656e74206f776e65724552433732313a207472616e736665722063616c6c6572206973206e6f74206f776e6572206e6f7220617070726f766564a2646970667358221220971b823db1674dd296cc45ed71612b6ee3f02ababda3c59f7b6844c1addf07c864736f6c63430007030033",
  "linkReferences": {},
  "deployedLinkReferences": {}
}